:020000040000FA
:0600000000308A00FB281D
:020008002028AE
:04000A00003400348A
:100040001713000895002608003C031957202608BE
:10005000023C031965202608033C03196E208B100F
:10006000171709008207FF347F343F341F3482079B
:10007000013403343F34FF3482071F343F347F346C
:10008000FF3483120313C1309F0055219F149F1822
:100090004728831203131E08C039A7000310A70CBA
:1000A000A70CA70CA70CA70C270CA6000800081784
:1000B000A721A00008138817A721A10008178817F7
:1000C000A721A2000813881308000817A721A3007E
:1000D00008138817A721A4008813080088010817AF
:1000E000A721A500080000308800200832208316D0
:1000F00003139200831203134C309700210837201A
:10010000A80022083720A90028082902031C8D28EE
:100110002908AB002808AA0091282808AB00290864
:10012000AA002B08AC002730831203139500552139
:100130002C089500AC032A082C02031D9728552192
:100140002C089500AC0A2C082B02031D9F280800E0
:1001500017130008950023083C20AE00AE0355217C
:1001600055212E08003C031DAE282D088800412093
:10017000023C031DDD28AD0D2D102D08003C031D94
:10018000A9282408013C031DDF288030AD00230886
:100190003C20AE002D0888004120023C031DDD28D4
:1001A000AD0CAD13AE03552155212E08003C031DA7
:1001B000D2282D08013C031DC7281717080001305D
:1001C000AD00080017130008950025083C20B40076
:1001D000B40355213408003C031DE8283208880088
:1001E00032080139B300B20C331CE22832088C3AD1
:1001F000B2001717080000008501860187018801F9
:1002000089018316031789010130880083160313BF
:100210000130850001308600003087008801F83009
:1002200089000108083981009F01831203134130BE
:100230009F00FF3088000330632188010330632171
:100240008316031340308100831203138B170B16A0
:1002500083160313881383120313043092000130B2
:10026000A0000130A1000230A2000130A300013043
:10027000A4000030A500AC30B2000130AD00000099
:1002800041202608003C031973202608023C03196C
:0C029000A8202608033C0319E2203F29A7
:04029C001F30B60059
:1002A000B60B5029000000000800F830B60000002E
:1002B000B60B57290000000000000800B7005521C8
:1002C000B70B5F290800B80064305E21B80B6429C1
:1002D00008009F149F1C6A291E080800060801399F
:1002E000B90014305E21060801393906031D6E2954
:1002F000390808000808BB0088013B08C03988009D
:1003000008166921C039BA00BA1B8E293A1B8B29FD
:100310000814013095298814023095293A1B932935
:1003200008150430952988150830BA006E21061882
:100330007C298801033063213A0888000430632156
:100340008801033063213B0888003A080800080848
:10035000BB0088013B08C039880008166921C039F4
:10036000BA000310BA0CBA0CBA0CBA0CBA0CBA0C1C
:100370000808FC393A0488006E210618A92988016A
:10038000033063213A088800043063218801033078
:0A03900063213B0888003A080800CA
:02400E00A4000C
:02401000FF3E71
:00000001FF
